:100000000C9463000C940B030C94E4020C948B008E
:100010000C948B000C948B000C948B000C948B0034
:100020000C948B000C9432030C948B000C948B007A
:100030000C948B000C948B000C948B000C948B0014
:100040000C949A020C948B000C9468020C9442025B
:100050000C948B000C948B000C948B000C948B00F4
:100060000C948B000C948B006364696E6F707375D5
:1000700078585B000000000800020100000304073C
:100080000000000000000000000000002500280023
:100090002B0000000000240027002A0004040404B0
:1000A0000404040402020202020203030303030322
:1000B00001020408102040800102040810200102FF
:1000C00004081020DB0311241FBECFEFD8E0DEBFF1
:1000D000CDBF11E0A0E0B1E0EAEEFAE102C0059088
:1000E0000D92A432B107D9F722E0A4E2B1E001C039
:1000F0001D92A231B207E1F710E0C3E6D0E004C0E0
:100100002197FE010E94220AC236D107C9F70E9438
:1001100034040C94730D0C94000090E0FC01E05545
:10012000FF4F249184569F4FFC018491882399F0BE
:1001300090E0880F991FFC01EE56FF4FA591B491F6
:10014000FC01E857FF4F859194918FB7F894EC919B
:10015000E22BEC938FBF08950895AF92BF92CF9298
:10016000DF92EF92FF920F931F93CF93DF936C0177
:100170007B018B01040F151FEB015E01AE18BF0858
:10018000C017D10759F06991D601ED91FC9101900A
:10019000F081E02DC6010995892B79F7C501DF9122
:1001A000CF911F910F91FF90EF90DF90CF90BF9074
:1001B000AF900895FC01538D448D252F30E0842F9E
:1001C00090E0821B930B541710F0CF96089501977F
:1001D0000895FC01918D828D981761F0A28DAE0F6C
:1001E000BF2FB11D5D968C91928D9F5F9F73928FF3
:1001F00090E008958FEF9FEF0895FC01918D828D1F
:10020000981731F0828DE80FF11D858D90E00895EB
:100210008FEF9FEF0895FC01918D228D892F90E043
:10022000805C9F4F821B91098F73992708958FE6F9
:1002300091E00E940B0121E0892B09F420E0822F3C
:10024000089580E090E0892B29F00E941701811128
:100250000C9400000895FC01A48DA80FB92FB11DC6
:10026000A35ABF4F2C91848D90E001968F739927EC
:10027000848FA689B7892C93A089B1898C918370CA
:1002800080648C93938D848D981306C00288F389C3
:10029000E02D80818F7D80830895EF92FF920F93F0
:1002A0001F93CF93DF93EC0181E0888F9B8D8C8D22
:1002B00098131AC0E889F989808185FF15C09FB716
:1002C000F894EE89FF896083E889F98980818370D9
:1002D000806480839FBF81E090E0DF91CF911F9188
:1002E0000F91FF90EF900895F62E0B8D10E00F5FA9
:1002F0001F4F0F731127E02E8C8D8E110CC00FB67F
:1003000007FCFACFE889F989808185FFF5CFCE0116
:100310000E942B01F1CFEB8DEC0FFD2FF11DE35A65
:10032000FF4FF0829FB7F8940B8FEA89FB89808199
:100330008062CFCFCF93DF93EC01888D8823B9F013
:10034000AA89BB89E889F9898C9185FD03C08081E0
:1003500086FD0DC00FB607FCF7CF8C9185FFF2CF5D
:10036000808185FFEDCFCE010E942B01E9CFDF9187
:10037000CF91089590E0FC01EC58FF4F2491FC01CF
:10038000E055FF4F3491FC01E456FF4FE491EE231A
:10039000C9F0222339F0233001F1A8F4213019F1FA
:1003A000223029F1F0E0EE0FFF1FE857FF4FA59133
:1003B000B4918FB7F894EC91611126C030953E232B
:1003C0003C938FBF08952730A9F02830C9F024301E
:1003D00049F7809180008F7D03C0809180008F77E6
:1003E00080938000DFCF84B58F7784BDDBCF84B569
:1003F0008F7DFBCF8091B0008F778093B000D2CFFC
:100400008091B0008F7DF9CF3E2BDACF2FB7F894D3
:100410006091290170912A0180912B0190912C010A
:100420002FBF0895CF92DF92EF92FF92C0900D02FE
:10043000D0900E02E0900F02F09010020E9406028F
:10044000C61AD70AE80AF90A8BE0C816D104E104F3
:10045000F10498F080914E0190914F010196909394
:100460004F0180934E010E94060260930D0270932B
:100470000E0280930F0290931002FF90EF90DF9096
:10048000CF9008951F920F920FB60F9211242F93C1
:100490003F934F935F936F937F938F939F93AF930C
:1004A000BF93EF93FF938FE691E00E942B01FF91A2
:1004B000EF91BF91AF919F918F917F916F915F91DC
:1004C0004F913F912F910F900FBE0F901F90189555
:1004D0001F920F920FB60F9211242F938F939F9319
:1004E000EF93FF93E0917F01F09180018081E09193
:1004F0008501F091860182FD1BC090818091880169
:100500008F5F8F7320918901821741F0E0918801FC
:10051000F0E0E159FE4F958F80938801FF91EF91B4
:100520009F918F912F910F900FBE0F901F90189554
:100530008081F4CF1F920F920FB60F9211242F9348
:100540003F938F939F93AF93BF9380912901909195
:100550002A01A0912B01B0912C013091280123E0B8
:10056000230F2D3758F50196A11DB11D20932801A9
:100570008093290190932A01A0932B01B0932C0121
:100580008091240190912501A0912601B09127012D
:100590000196A11DB11D8093240190932501A09384
:1005A0002601B0932701BF91AF919F918F913F9109
:1005B0002F910F900FBE0F901F90189526E8230FD4
:1005C0000296A11DB11DD2CF1F920F920FB60F92AE
:1005D00011242F933F934F935F936F937F938F9348
:1005E0009F93AF93BF93EF93FF93E0910201F0913C
:1005F00003010995FF91EF91BF91AF919F918F9169
:100600007F916F915F914F913F912F910F900FBE0E
:100610000F901F9018951F920F920FB60F921124F2
:100620002F933F934F935F936F937F938F939F93FA
:10063000AF93BF93EF93FF93E0910001F09101011D
:100640000995FF91EF91BF91AF919F918F917F910C
:100650006F915F914F913F912F910F900FBE0F902F
:100660001F9018951F920F920FB60F9211242F937F
:100670003F934F935F936F937F938F939F93AF932A
:10068000BF93EF93FF9380912D018F5F80932D0196
:10069000E0912E0120912D018E2F90E0FC01EE0FB4
:1006A000FF1FE80FF91FEF5CFE4F8181E0912E01E3
:1006B00082131DC08E2F90E0FC01EE0FFF1FE80F8C
:1006C000F91FEF5CFE4F82818093B200FF91EF91A2
:1006D000BF91AF919F918F917F916F915F914F915A
:1006E0003F912F910F900FBE0F901F901895209162
:1006F0002D018E2F90E0FC01EE0FFF1FE80FF91F78
:10070000EF5CFE4F8181821708F7E0912E018E2F5A
:1007100090E0FC01EE0FFF1FE80FF91FEF5CFE4FAA
:10072000808185FF10C0E0912E018E2F90E0FC01AA
:10073000EE0FFF1FE80FF91FEF5CFE4F808160E0B6
:100740008F710E94BA0180912E018F5F80932E01DC
:1007500010922D011092B20080912E01882319F180
:1007600080912E018930F8F4E0912E018E2F90E0D7
:10077000FC01EE0FFF1FE80FF91FEF5CFE4F8081B9
:1007800085FFA4CFE0912E018E2F90E0FC01EE0FAB
:10079000FF1FE80FF91FEF5CFE4F808161E08F7152
:1007A0000E94BA0193CF80912E01893008F48ECF38
:1007B00010922E018BCF109272011092710188EE6F
:1007C00093E0A0E0B0E08093730190937401A09354
:1007D0007501B09376018AE091E090937001809367
:1007E0006F0185EC90E090937C0180937B0184EC19
:1007F00090E090937E0180937D0180EC90E0909357
:10080000800180937F0181EC90E09093820180933E
:10081000810182EC90E0909384018093830186ECC7
:1008200090E0909386018093850110928801109248
:10083000890110928A0110928B0180910C028830FC
:1008400080F48F5F80930C02809311020E94060255
:1008500060930D0270930E0280930F02909310022A
:10086000089510921102F2CFCF93DF93CDB7DEB788
:10087000A9970FB6F894DEBF0FBECDBF789484B5AC
:10088000826084BD84B5816084BD85B5826085BD8C
:1008900085B5816085BD80916E00816080936E001A
:1008A000109281008091810082608093810080910C
:1008B00081008160809381008091800081608093BD
:1008C00080008091B10084608093B1008091B0007D
:1008D00081608093B00080917A00846080937A0078
:1008E00080917A00826080937A0080917A008160A2
:1008F00080937A0080917A00806880937A001092C9
:10090000C100E0917F01F091800182E08083E0915D
:100910007B01F0917C011082E0917D01F0917E01DC
:1009200081E0808310928701E0918301F09184013E
:1009300086E08083E0918101F09182018081806175
:100940008083E0918101F0918201808188608083C1
:10095000E0918101F0918201808180688083E09143
:100960008101F091820180818F7D808385E00E94EA
:100970008D0080912F01811122C0E1E3F1E089E433
:1009800091E03BE027E53483258333968E179F075C
:10099000D1F78EE38093320110922E0110922D0137
:1009A000109270001092B00082E08093B10010921B
:1009B000B20081E087BB8093700080932F0180910B
:1009C0001102882399F086E00E948D00E0911102C7
:1009D0008E2F90E0FC01EE0FFF1FE80FF91FEF5C78
:1009E000FE4F8081807E86608062808383E00E94EB
:1009F0008D0084E00E948D0082E192E090930101DD
:100A000080930001809169008C7F826080936900EF
:100A1000E89A61E083E00E94BA0160E084E00E940D
:100A2000BA01CE0184969FA38EA3FE01B296F9A7C8
:100A3000E8A7E4EB8E2E912CA12CB12CFAE52F2EF9
:100A4000312C1BE08FE691E00E940B0120916E019A
:100A500018161906FCF4211120C08FE691E00E94BF
:100A6000E90090913001E92FF0E0EE59FE4F8A3015
:100A700051F080839F5F9C3018F010933001E2CFDB
:100A800090933001DFCF108210923001F1E0F093AB
:100A90006E01D8CF222309F4FDC03DA22CA23BA2B7
:100AA0002AA22FA12F938EA18F9399A59F93E8A59A
:100AB000EF9388E191E09F938F9382E691E09F937B
:100AC0008F930E94280A2CA13DA1A8E1BCEF0E94AF
:100AD000FF09A50194010E945D072053384F4F4F35
:100AE0005F4F3093050120930401AAA1BBA10FB66B
:100AF000F894DEBF0FBECDBFB7FD26C12FEF30E0AB
:100B00000E94070AA50194010E945D0769012A3825
:100B100031050CF404C161E083E00E94BA0160E099
:100B200084E00E94BA0190E8C91AD108D09261010C
:100B3000C09260010E94060200915401109155017B
:100B40002091560130915701601B710B820B930B62
:100B5000609350017093510180935201909353011F
:100B600080914E0190914F0109970CF460C0E89874
:100B7000ECEAF0E0F0930101E093000180914E0176
:100B800090914F0163E070E00E94EB09072E000C8A
:100B9000880B990B0E94C9086B017C016091500180
:100BA0007091510180915201909153010E94C708A8
:100BB0009B01AC01C701B6010E941F0820E030E094
:100BC00040E752E40E947E0920E030E04AE754E426
:100BD0000E947E090E94980870934D0160934C0119
:100BE00090E080E00E94C70860935C0170935D0113
:100BF00080935E0190935F010E940602609354010E
:100C000070935501809356019093570110924F01B4
:100C100010924E0182E192E09093010180930001D5
:100C2000809169008C7F826080936900E89A2091AE
:100C30004C0130914D0150E040E019A28E010F5D52
:100C40001F4FCA01B9012AE030E040E050E00E94A5
:100C50007C07605DF80162938F0121153105410524
:100C6000510579F7309761F001900020E9F731974D
:100C7000AF01401B510BB8018FE691E00E94AD001F
:100C800042E050E060E271E08FE691E00E94AD004A
:100C900010926E01E09111028FEF8E0F883018F5DF
:100CA00080910401909105018B3CF8E09F0714F0BE
:100CB0008AEC98E08E3E22E0920714F48EEE92E0E9
:100CC0000897AC01440F452F441F550B2E2F30E0E1
:100CD000F901EE0FFF1FE20FF31FEF5CFE4F4183A0
:100CE000880F80958283009160011091610185E0F9
:100CF0000E948D000115110509F098C060E085E0A3
:100D00000E94BA0180E090E0892B09F49ACE0E94FB
:100D10001701882309F495CE0E94000092CE60E06E
:100D2000243631050CF073C083E00E94BA0161E003
:100D300084E00E94BA0180E890E08C199D099093AC
:100D4000610180936001F6CE662777276A1B7B0BD3
:100D5000072E000C880B990B0E94C90820915C019A
:100D600030915D0140915E0150915F010E94AD079D
:100D700027E137EB41E559E30E947E092B013C0155
:100D8000209158013091590140915A0150915B01D5
:100D90000E94AE076B017C0120E030E040EA52E4A3
:100DA0000E941A0887FF3BC020E030E048E452E48C
:100DB000C701B6010E947909181634F0C12CD12C54
:100DC00078E4E72E72E4F72EC0925801D0925901D0
:100DD000E0925A01F0925B01C701B6010E949108AE
:100DE00070936101609360012AE037ED43E25CEBB0
:100DF000C301B2010E941A08181644F060E083E0B3
:100E00000E94BA0160E084E00E94BA0161E083E0E0
:100E10000E94BA0160E084E00E94BA018BCEC12C2E
:100E2000D12C60EAE62E62E4F62ECECF0F3F1105FC
:100E300011F461E064CFE9E7F0E0E491E33019F107
:100E400040F4E130B1F0E230C9F0003811058CF720
:100E500055CFE73011F1E83041F1E430B1F780913E
:100E6000800080628093800010938B0000938A0042
:100E700049CF84B5806884BD07BD44CF84B5806206
:100E800084BD08BD3FCF8091800080688093800042
:100E9000109389000093880035CF8091B00080685E
:100EA0008093B0000093B3002DCF8091B00080629A
:100EB0008093B0000093B40025CF052E97FB1EF45D
:100EC00000940E94740757FD07D00E947C0707FC1E
:100ED00003D04EF40C9474075095409530952195AD
:100EE0003F4F4F4F5F4F0895909580957095619556
:100EF0007F4F8F4F9F4F0895A1E21A2EAA1BBB1B55
:100F0000FD010DC0AA1FBB1FEE1FFF1FA217B307D5
:100F1000E407F50720F0A21BB30BE40BF50B661FEB
:100F2000771F881F991F1A9469F7609570958095AF
:100F300090959B01AC01BD01CF010895A29FB00126
:100F4000B39FC001A39F700D811D1124911DB29FFD
:100F5000700D811D1124911D08955058BB27AA279B
:100F60000E94C5070C943F090E94310938F00E9485
:100F7000380920F039F49F3F19F426F40C942E0917
:100F80000EF4E095E7FB0C942809E92F0E94500924
:100F900058F3BA17620773078407950720F079F4AE
:100FA000A6F50C9472090EF4E0950B2EBA2FA02D25
:100FB0000B01B90190010C01CA01A0011124FF2706
:100FC000591B99F0593F50F4503E68F11A16F04001
:100FD000A22F232F342F4427585FF3CF4695379500
:100FE0002795A795F0405395C9F77EF41F16BA0BC5
:100FF000620B730B840BBAF09150A1F0FF0FBB1F73
:10100000661F771F881FC2F70EC0BA0F621F731FBB
:10101000841F48F4879577956795B795F7959E3F18
:1010200008F0B0CF9395880F08F09927EE0F9795A9
:10103000879508950E94040908F481E008950E94AC
:1010400033080C943F090E94380958F00E94310976
:1010500040F029F45F3F29F00C94280951110C94B9
:1010600073090C942E090E94500968F39923B1F377
:10107000552391F3951B550BBB27AA2762177307BE
:10108000840738F09F5F5F4F220F331F441FAA1F52
:10109000A9F335D00E2E3AF0E0E832D0915050400E
:1010A000E695001CCAF72BD0FE2F29D0660F771FBC
:1010B000881FBB1F261737074807AB07B0E809F0A2
:1010C000BB0B802DBF01FF2793585F4F3AF09E3F27
:1010D000510578F00C9428090C9473095F3FE4F3F0
:1010E000983ED4F3869577956795B795F7959F5F6A
:1010F000C9F7880F911D9695879597F90895E1E0B6
:10110000660F771F881FBB1F621773078407BA0714
:1011100020F0621B730B840BBA0BEE1F88F7E0956F
:1011200008950E9498086894B1110C947309089569
:101130000E94580988F09F5798F0B92F9927B75106
:10114000B0F0E1F0660F771F881F991F1AF0BA956B
:10115000C9F714C0B13091F00E947209B1E008954E
:101160000C947209672F782F8827B85F39F0B93F40
:10117000CCF3869577956795B395D9F73EF490951E
:101180008095709561957F4F8F4F9F4F0895E8949C
:1011900009C097FB3EF490958095709561957F4FBF
:1011A0008F4F9F4F9923A9F0F92F96E9BB2793956D
:1011B000F695879577956795B795F111F8CFFAF47D
:1011C000BB0F11F460FF1BC06F5F7F4F8F4F9F4FAE
:1011D00016C0882311F096E911C0772321F09EE80C
:1011E000872F762F05C0662371F096E8862F70E072
:1011F00060E02AF09A95660F771F881FDAF7880F4C
:101200009695879597F90895990F0008550FAA0BA1
:10121000E0E8FEEF16161706E807F907C0F0121609
:101220001306E407F50798F0621B730B840B950B0C
:1012300039F40A2661F0232B242B252B21F4089561
:101240000A2609F4A140A6958FEF811D811D0895FE
:1012500097F99F6780E870E060E008959FEF80EC69
:10126000089500240A94161617061806090608950C
:1012700000240A9412161306140605060895092E72
:101280000394000C11F4882352F0BB0F40F4BF2BE1
:1012900011F460FF04C06F5F7F4F8F4F9F4F089521
:1012A00057FD9058440F551F59F05F3F71F0479517
:1012B000880F97FB991F61F09F3F79F087950895FC
:1012C000121613061406551FF2CF4695F1DF08C01B
:1012D000161617061806991FF1CF86957105610538
:1012E00008940895E894BB2766277727CB0197F9E0
:1012F00008950E94040908F48FEF08950E9491094F
:101300000C943F090E94310938F00E94380920F0FE
:10131000952311F00C9428090C942E0911240C9497
:1013200073090E94500970F3959FC1F3950F50E027
:10133000551F629FF001729FBB27F00DB11D639F87
:10134000AA27F00DB11DAA1F649F6627B00DA11D2D
:10135000661F829F2227B00DA11D621F739FB00DD3
:10136000A11D621F839FA00D611D221F749F332743
:10137000A00D611D231F849F600D211D822F762FDC
:101380006A2F11249F5750409AF0F1F088234AF0B9
:10139000EE0FFF1FBB1F661F771F881F9150504025
:1013A000A9F79E3F510580F00C9428090C9473090D
:1013B0005F3FE4F3983ED4F3869577956795B795AC
:1013C000F795E7959F5FC1F7FE2B880F911D9695C6
:1013D000879597F9089597FB072E16F4009407D088
:1013E00077FD09D00E940E0A07FC05D03EF49095C7
:1013F00081959F4F0895709561957F4F08950E9444
:101400009E07332312F48A1B9B0B0C94090A0E943B
:101410009E07B7FF0895821B930B0895AA1BBB1B61
:1014200051E107C0AA1FBB1FA617B70710F0A61BE4
:10143000B70B881F991F5A95A9F780959095BC0105
:10144000CD010895EE0FFF1F0590F491E02D099452
:10145000AEE0B0E0EEE2FAE00C944C0D85E08C8357
:101460008B899C899A838983AE01495E5F4F6D8920
:101470007E89CE0101960E94CC0B2E96E2E00C9460
:10148000680D20FD09C0FC0123FD05C022FF02C03C
:101490007383628351834083089544FD17C046FDE2
:1014A0001DC0DB01FC01AA0FBB1FEE1FFF1F109424
:1014B000D1F76A0F7B1F8E1F9F1F660F771F881F34
:1014C000991F620F711D811D911D089533E0660FF4
:1014D000771F881F991F3150D1F7F3CF34E0F7CF32
:1014E0000F931F93CF93DF938C01C8010E94E50CEB
:1014F000EC0197FD08C00E94D10C892BB1F7B8010F
:10150000CE010E94210DCE01DF91CF911F910F914D
:1015100008958F929F92AF92BF92EF92FF920F9396
:101520001F93CF93DF938C01D62F7A01B22E0E94A6
:10153000E50C9C0133272B32310529F02D32310582
:10154000A9F46894B7F8D15061F480E0DF91CF91AD
:101550001F910F91FF90EF90BF90AF909F908F9051
:101560000895C8010E94E50C97FDEFCFCB2DCD7FEC
:101570002B2D2073F9F48033E9F4AA24AA94AD0E3C
:1015800089F0C8010E94E50C97FD0CC0282F2F7D23
:10159000283561F4C264D25029F0C8010E94E50CDC
:1015A00097FF08C0812C912C54011BC0B6FE2BC0A4
:1015B000C260DA2D812C912C540120ED280F2830A7
:1015C00028F1C4FD09C02A3008F1C6FF05C02F7DEF
:1015D0003FEE320F3630C8F0B8010E94210DC1FF36
:1015E000B4CFC7FF08C0B094A09490948094811C9D
:1015F000911CA11CB11C2C2FB501A401C7010E9494
:10160000410A81E0A3CFC261D4CF27504C2FC5013E
:10161000B4010E944D0A4B015C01C260D15009F334
:10162000C8010E94E50C97FFC8CFD9CFA0E2B0E077
:10163000ECE1FBE00C94410D5C01962E7A01CE01A9
:1016400001966C0180E2F60111928A95E9F7F501A5
:10165000B381890130E020E0712C812CA0E041E0D1
:1016600050E0F801B3FD8591B3FF8191982F8F0170
:10167000811107C010E000E0C801A096EDE00C94D5
:101680005D0D8E3519F42115310541F1A2171306B0
:101690004CF48D3549F18D3229F4811006C088242F
:1016A00083941DC0882009F464C0E92FE695E6956F
:1016B000E695EC0DFD2DF11D892F8770BA0101C053
:1016C000660F8A95EAF78081682B6083791651F05E
:1016D000971510F49F5FE9CF9150E7CFA1E02F5FFE
:1016E0003F4FBFCF812CFBCF882019F08E818062C5
:1016F0008E83AA2359F0F6019E012F5D3F4F808112
:10170000809580833196E217F307C9F78824839484
:10171000C5010E94E50C97FD16C0E82FE695E695F9
:10172000E695EC0DFD2DF11D208130E0AC014770F8
:10173000552702C0359527954A95E2F720FD06C04A
:10174000B5010E94210D882069F094CFE114F104C5
:1017500029F0F7018083C70101967C019A94812CBE
:101760009110D6CFE114F10409F486CFF70110826D
:1017700083CFE82FE695E695E695EC0DFD2DF11D5E
:10178000982F9770BA0101C0660F9A95EAF7908179
:10179000692B6083782EA3CFB0E0A0E0E2EDFBE000
:1017A0000C943F0D6C01EB015A01FC01178216826B
:1017B000512CF601E380FE01E3FC8591E3FE81916B
:1017C000182FEF018823E9F090E00E94D10C892BBB
:1017D00021F0C6010E94700AECCF153241F4FE01DF
:1017E000E3FC1591E3FE1191EF01153269F4C60196
:1017F0000E94E50C97FD8EC01817D9F2B6010E9421
:10180000210D852D90E08AC000E01A3231F4E3FC0E
:101810001591E3FE1191EF0101E0F12C20ED210F74
:101820002A3048F101FF37C0FF2059F31836B1F1D3
:101830001C3609F43DC0112321F3612F70E088E6C6
:1018400090E00E94DA0C892BE1F2912C812C00FDB2
:1018500006C0F50180809180C50102965C011E36AC
:1018600079F5F6014681578170E060E0202FC401D0
:101870000E94410A9ECF02606F2D70E090E080E0F0
:1018800040E20E944D0AF62EFE01E3FC1591E3FEB4
:101890001191EF01C3CFFF24FA94C8CFFE01E3FCFE
:1018A0001591E3FE1191EF01183609F0C4CF0860DD
:1018B0000460FE01E3FC1591E3FE1191EF01BBCF43
:1018C0001336C1F401FD02C0FF24F394C6010E9447
:1018D000E50C97FD1FC08114910429F0F401808369
:1018E000C40101964C01FA94F110F0CF00FD61CFD4
:1018F00053945FCF1B35B9F49E01A4016F2DC6012F
:101900000E94160BEC01892B89F7F6018381807305
:1019100009F477CF8FEF9FEF511073CFCDB7DEB7BC
:10192000EFE00C945B0DC6010E94700A97FDF2CFA8
:101930001F36A9F130F4143641F0193639F000643D
:1019400005C01337B9F01537D1F70062202FA40175
:101950006F2DC6010E94890A8111C8CFD6CF81148C
:10196000910429F0F4016082C40101964C01FA94BB
:10197000FF2071F0C6010E94E50C3C0197FD08C0F4
:101980000E94D10C892B59F3B601C3010E94210D8D
:101990008114910409F4AACFF4011082A7CF006149
:1019A000D5CF91110C94390D803219F089508550A2
:1019B000C8F70895FC010590061621F00020D9F71C
:1019C000C00108953197CF010895CF93DF93EC01C3
:1019D0002B8120FF1AC026FF0CC02F7B2B838E810A
:1019E0009F8101969F838E838A8190E0DF91CF91C2
:1019F000089522FF18C0E881F9818081082E000C2B
:101A0000990B009729F420622B838FEF9FEFEECF85
:101A10003196F983E8832E813F812F5F3F4F3F83CB
:101A20002E839927E3CFEA85FB85099597FFF3CFAE
:101A30002B81019621F080E2822B8B83E6CF80E11F
:101A4000FBCFFB01238120FF11C026FD0FC08F3F7C
:101A5000980771F082832F7D20642383268137814C
:101A60002150310937832683992708958FEF9FEFFF
:101A700008959927882708952F923F924F925F9259
:101A80006F927F928F929F92AF92BF92CF92DF928E
:101A9000EF92FF920F931F93CF93DF93CDB7DEB7F3
:101AA000CA1BDB0B0FB6F894DEBF0FBECDBF099487
:101AB0002A88398848885F846E847D848C849B84DE
:101AC000AA84B984C884DF80EE80FD800C811B81EC
:101AD000AA81B981CE0FD11D0FB6F894DEBF0FBE1B
:0A1AE000CDBFED010895F894FFCF8B
:101AEA00AC00AC00DC05000000004D01AD00DA00DE
:101AFA009A010B01E900FD002535642D25356400A6
:041B0A000D0A0000C0
:00000001FF
